:10000000BCC10000EBC10000E9C10000E7C1000075
:10001000E5C10000E3C10000E1C10000DFC1000054
:10002000DDC10000DBC10000D9C10000D7C1000064
:10003000D5C10000D3C10000D1C10000CFC1000074
:10004000CDC10000CBC10000C9C10000C7C1000084
:10005000C5C10000C3C10000C1C100000C94CF099C
:10006000BDC100000C94310D0C94670DB7C10000A8
:10007000B5C10000B3C10000B1C10000AFC10000B4
:10008000ADC10000ABC10000A9C10000A7C10000C4
:100090000C94DC0D0C94120EA1C100009FC1000055
:1000A0009DC100009BC1000099C1000097C10000E4
:1000B00095C1000093C1000091C100008FC10000F4
:1000C0008DC100008BC1000089C1000087C1000004
:1000D00085C1000083C1000081C100007FC1000014
:1000E0007DC100000B081C082A083D0844086D0863
:1000F00075087D0884088A088A088A088A088A0898
:100100008A088A088A088A088A088A088A088A085F
:100110008A088A088A088A088A088A088A088A084F
:100120008A088A080B0815081C082A083D08440894
:1001300057085E086508F20AF50AE40AE80AEE0ABA
:100140002C0BF90AFD0A030B070B0B0B110B150BFC
:10015000190B2C0B1F0B230B270B00000A0B02099A
:100160000C0D0E0807030401000000000000000051
:10017000000000000000000000000000000000007F
:10018000000000000000121110000000000000003C
:10019000000000000000000000000000000000005F
:1001A0000102102020080810204010204080020189
:1001B000020108040201010204081020408080406E
:1001C000201008040201800402018040201008046D
:1001D000020108040201010204081020408001020B
:1001E00004081020408005050505070508080808D3
:1001F000020202020A0A08080404040401010101BF
:1002000001010101030303030303030304070707B9
:100210000C0C0C0C0C0C0C0C02020202060606065E
:10022000060606060B0B0B0B0B0B0B0B000020003E
:100230002300260029002C002F00320000010000BE
:1002400003010601090100002200250028002B00FF
:100250002E003100340002010000050108010B01ED
:1002600000002100240027002A002D003000330068
:1002700001010000040107010A0100407A10F35A4D
:1002800000A0724E18090010A5D4E80000E87648D6
:10029000170000E40B54020000CA9A3B000000E182
:1002A000F505000080969800000040420F00000015
:1002B000A08601000000102700000000E8030000F5
:1002C00000006400000000000A00000000000100BF
:1002D000000000002C76D888DC674F0823DFC1DFE0
:1002E000AE59E1B1B796E5E3E453C63AE6519976E3
:1002F00096E8E6C28426EB898C9B62ED407C6FFC1D
:10030000EFBC9C9F40F2BAA56FA5F490055A2AF75E
:100310005C936B6CF9676DC11BFCE0E40D47FEF567
:1003200020E6B500D0ED902E0300943577050080CF
:10033000841E080000204E0A000000C80C3333332E
:10034000330F986E12831141EF8D2114893BE655CE
:1003500016CFFEE6DB18D1844B381BF77C1D901DB1
:10036000A4BBE424203284725E228100C9F124EC13
:10037000A1E53D275A02990D440E11241FBECFEF6F
:10038000D1E2DEBFCDBF00E00CBF12E0A0E0B2E0E2
:10039000E8EDFDE200E00BBF02C007900D92AC3C1F
:1003A000B107D9F725E0ACECB2E001C01D92A03254
:1003B000B207E1F713E0CAE7D3E000E006C02297F6
:1003C0000109FE010BBF0E941912C437D10780E05A
:1003D0000807A9F70E94CF100C94EA1611CECF930C
:1003E000DF93EC0140E060E081EC93E0E3D262E176
:1003F00072E081EC93E00E94D30E40E06DE081EC6E
:1004000093E0D8D24AE050E0BE0181EC93E00E9434
:10041000AC0F68EE73E080E090E0DF91CF910C9438
:10042000480A60E08CE00E942D0B60E08BE00E94A7
:100430002D0B60E08AE00E942D0B61E089E00E94B4
:100440002D0B61E088E00E942D0B20E042E060E18E
:1004500081EC93E0C7D226E040E855E260E070E02E
:1004600082EE93E00E94D10C26E040E855E260E085
:1004700070E08FE794E00E94D10C60EE7EE280E0B5
:1004800090E00E94480A60E272E082EE93E00E94EF
:10049000EE0E65E272E082EE93E00E94EE0E6FE2F5
:1004A00072E082EE93E00E94EE0E68EE73E080E070
:1004B00090E0EEC7CF92EF920F938BE1C82E9AE1B6
:1004C000E92E09E128E147E166E181EC93E010D3F0
:1004D0008EE493E00F91EF90CF902EC31F93CF93B4
:1004E000DF93CDB7DEB76A970FB6F894DEBF0FBEC5
:1004F000CDBF182F8FE794E00E94C30B892BB1F07A
:100500008FE794E00E94DC0B682F8EE493E00BD61B
:10051000882381F320E030E0AE014D5E5F4FBE01E5
:10052000695E7F4F8EE493E0D2D6E4CF4F89588D39
:10053000698D7A8D26E0CE010D960E944D104B8973
:100540005C896D897E8926E0CE0107960E944D1058
:1005500065E272E082EE93E00E94EE0E64EF71E0DD
:1005600080E090E095D761E472E082EE93E00E9433
:10057000EE0E64EF71E080E090E08AD7612F82EEAA
:1005800093E00E94FE0E64EF71E080E090E080D77F
:10059000BE01635F7F4FCE0101960E942F1067E579
:1005A00072E0CE0101960E94B610BE01695F7F4FD6
:1005B0000E94A510BC0182EE93E00E94DE0ECE01E7
:1005C00001960E94B30F64EF71E080E090E060D785
:1005D0006AE182EE93E00E94FE0E64EF71E080E03B
:1005E00090E056D7CE0107960E94B30FCE010D962C
:1005F0000E94B30F6A960FB6F894DEBF0FBECDBF50
:10060000DF91CF911F910895CF93DF938CE00E94EB
:100610009B0B019799F464EF71E080E090E038D78C
:100620008BE00E949B0B019749F480914C039091C1
:100630004D03019690934D0380934C038BE00E94F1
:100640009B0B019799F464EF71E080E090E020D774
:100650008CE00E949B0B019749F480914C03909190
:100660004D03019790934D0380934C0380914C036D
:1006700090914D038A30910534F4B1DE1092450318
:100680001092440319C081E090E090934503809359
:10069000440381EC93E089D140E060E081EC93E099
:1006A00089D169E572E081EC93E00E94D30E68EE97
:1006B00073E080E090E0ECD68AE00E949B0B01970B
:1006C00009F037C08AE00E949B0B0197D9F3809113
:1006D000440390914503892B61F561E089E0F6D7E9
:1006E00060E088E0F3D760ED77E080E090E0D0D67E
:1006F00060E089E0EBD760E088E0E8D768E873E184
:1007000080E090E0C5D660E089E0E0D761E088E075
:10071000DDD760ED77E080E090E0BAD660E089E078
:10072000D5D760E088E0D2D768EE73E080E090E053
:10073000AFD682EE93E00E94C30B18161906ACF4F4
:10074000C0914A03D0914B0382EE93E00E94DC0BF0
:10075000CC50DD4F888380914A0390914B030196E2
:1007600090934B0380934A03E4CFE4EFF2E00190CF
:100770000020E9F73197E45FF240F0934903E093FA
:10078000480364EF72E082EE93E00E94EE0E82E096
:1007900090E09C01225031098630910554F4FC010F
:1007A000E252FD4FDC01AC50BD4F2C9120830196ED
:1007B000F0CF90934B0380934A03309347032093E9
:1007C000460360EE72E082EE93E00E94EE0E69E076
:1007D00072E080EE92E00E947D14009729F09093E1
:1007E00011028093100226C081E090E090931102E4
:1007F0008093100283E390E09C01235331098533F9
:10080000910554F4FC01E756FD4FDC01AC50BD4F9F
:100810002C9120830196F0CF90934B0380934A0351
:1008200030934703209346036CEC72E082EE93E032
:100830000E94EE0E66E072E08CEC92E00E947D1465
:10084000009739F090930F0280930E02DF91CF91C1
:10085000089581E090E090930F0280930E028091C2
:100860004C0390914D030A97BCF483E237DE81EC90
:1008700093E09BD040E060E081EC93E09BD062E6A7
:1008800072E081EC93E00E94D30E60ED77E080E0AF
:1008900090E0DF91CF91FCC58BE2DF91CF911ECE2E
:1008A000CF93DF93EC0160E08E8110D781E090E080
:1008B00014D661E08E810AD781E090E00ED660E028
:1008C0008E8104D784E690E0DF91CF9106C6EF9247
:1008D000FF920F931F93CF93DF938C01C0E0D0E082
:1008E000E62EF12CB7010C2E02C0759567950A947F
:1008F000E2F76170F801EC0FFD1F8781E7D62196C2
:10090000C430D10579F7C801DF91CF911F910F91C4
:10091000FF90EF90C5CFEF92FF920F931F93CF936D
:10092000DF938C01C0E0D0E0E62EF12CB7010C2E55
:1009300002C0759567950A94E2F76170F801EC0FB3
:10094000FD1F8781C3D62196C830D10579F7C8012C
:10095000DF91CF911F910F91FF90EF90A1CF1F9347
:10096000CF93DF93EC01162F642F8C81AFD68D814E
:100970008F3F11F060E0AAD68F85612F84FF05C0FC
:10098000CE01DF91CF911F91C6CF70E084E07595C5
:1009900067958A95E1F7CE019ADF612FCE01DF914D
:1009A000CF911F9194CF40E0DACF61E0FCDF80ED82
:1009B00097E093C5443008F043E0FC0123894217D7
:1009C00010F04FEF420FFC01E40FF11D2489260FB8
:1009D0002068622FE8CFFC016089262F2460208BDD
:1009E0006C60E1CF0F931F93CF93DF93EC01423004
:1009F00018F08F8588608F874B8B1C8A80E48D8BE5
:100A00006E8B70E0605C7F4F6F8B222329F041304A
:100A100019F48F8584608F8761E08C811ED68D816B
:100A20008F3F11F061E019D661E08E8116D600E0AB
:100A300010E08F8584FF03C088E090E002C084E06E
:100A400090E0081719074CF4FE01E00FF11F61E078
:100A5000878103D60F5F1F4FECCF80E593EC3DD528
:100A600060E08C8133D660E08E8130D68D818F3FFF
:100A700011F060E02BD66F8564FD16C063E0CE01F7
:100A800026DF84E991E129D563E0CE0120DF84E906
:100A900091E123D563E0CE011ADF86E990E01DD510
:100AA00062E0CE0114DF11C06062CE017CDF84E918
:100AB00091E113D56F856062CE0175DF86E990E024
:100AC0000CD56F856062CE016EDF6F856062CE01EE
:100AD0006ADF84E0888BCE017EDFCE0166DF82E0B4
:100AE000898B66E0CE01DF91CF911F910F915BCF93
:100AF000CF92EF920F93FC011382128287E792E06C
:100B00009183808364838FEF858346832783008767
:100B1000E186C2861386148615861686178620E01F
:100B200041E060E1CF010F91EF90CF905BCF41E0CA
:100B300016DF81E090E008950F931F93FC010FEF03
:100B40001FEF98010083118322833383108611865F
:100B5000128613864FEF59EC6AE97BE3408B518B89
:100B6000628B738B408F518F628F738F40A351A321
:100B700062A373A340A751A762A773A740AB51AB71
:100B800062AB73AB00AF11AF22AF33AFDC01A05C3F
:100B9000BF4F8FEF90E011969C938E9314960D9318
:100BA0001D932D933C93139718960D931D932D939E
:100BB0003C93139718961C9211961C92509682E0C3
:100BC0008C9311961C9211961C9211961C92119660
:100BD0001D921D921D921C921397149611961C92B1
:100BE0001E9212961D921C92EA5AFF4F10821F917C
:100BF0000F9108952FEB260F862F992787FD90954B
:100C0000263010F4C79708956156663018F487555A
:100C100091090895C09708950F931F93FB0160E019
:100C200070E0CB01019120ED200F2A30A0F4AAE062
:100C3000B0E09B01AC010E940912112707FD10953D
:100C4000212F312F600F711F821F931F6053710975
:100C500081099109E7CF1F910F9108950F931F9379
:100C6000CF93FC01EA5AFF4FC1E020812D3219F0E9
:100C7000C0E08F0103C08C01095A1F4FB801CCDFBF
:100C80009B01AC01A4E6B0E00E940912F801DF016B
:100C9000219130ED320F3A30D0F32E3269F51196B2
:100CA0002C91119730ED320F3A3030F5332727FD74
:100CB0003095205331094AE0429F8001439F100D37
:100CC0001124222717FD2095322F600F711F821FDC
:100CD000931F12960C9120ED200F2A3068F41127F3
:100CE00007FD109500531109222717FD2095322F7B
:100CF000600F711F821F931FCC2339F09095809550
:100D0000709561957F4F8F4F9F4FCF911F910F919E
:100D100008954F925F926F927F928F929F92AF92BF
:100D2000BF92CF92DF92EF92FF92CF93DF93EC01CD
:100D3000CA5ADF4FBE0170DF2B013C0124E630E0D0
:100D400040E050E00E94E1119B01AC0160EA76E8CE
:100D500081E090E00E94D2116B017C01FE01819143
:100D600090ED980F9A30D8F38E3219F5EF0180E1AB
:100D7000882E87E2982EA12CB12CA99180ED8A0FA4
:100D80008A30B8F4BB27A7FDB095D097A501940190
:100D90000E941312C60ED71EE81EF91EC501B4012B
:100DA0002AE030E040E050E00E94E11149015A01A0
:100DB000E4CFC701B6016D5F7F4F8F4F9F4F26E095
:100DC00030E040E050E00E94E11169017A01C30186
:100DD000B20124E630E040E050E00E94E11160E41E
:100DE00072E48FE090E00E94D211C60ED71EE81E7A
:100DF000F91EC701B601DF91CF91FF90EF90DF9010
:100E0000CF90BF90AF909F908F907F906F905F90AA
:100E10004F900895DB01FA018D91882319F091918B
:100E20008917D1F3992787FD90950895CF92DF9286
:100E3000EF92FF921F93CF93DF93EC01FC01EB5AEB
:100E4000FF4F1081112309F4A7C031966081D2DED3
:100E5000182FFE01E95AFF4F6081CE01CBDE40E141
:100E6000149F800D1124FE01EC5AFF4F90818913CD
:100E70008AC074961081112309F44CC13596808183
:100E80009181019691838083B59780819181A28120
:100E9000B381349780839183A283B3833C9680810E
:100EA0009181A281B381349780839183A283B3839C
:100EB000799680818823A1F1813009F02BC18C8142
:100EC0009D81AE81BF8188839983AA83BB838C85F2
:100ED0009D85AE85BF8588879987AA87BB878C89C2
:100EE0009D89AE89BF89888B998BAA8BBB8B8C8D92
:100EF0009D8DAE8DBF8D888F998FAA8FBB8F8CA54E
:100F00009DA5AEA5BFA588A799A7AAA7BBA78CA991
:100F10009DA9AEA9BFA988AB99ABAAABBBABFAC0E0
:100F20008CA19DA1AEA1BFA188A399A3AAA3BBA395
:100F30008C819D81AE81BF8188839983AA83BB8385
:100F40008C899D89AE89BF89888B998BAA8BBB8B35
:100F50008C8D9D8DAE8DBF8D888F998FAA8FBB8F05
:100F6000FE01E05CFF4FDE01AE5BBF4F8D919C91B7
:100F7000918380838CAD9DADAEADBFAD88AF99AF91
:100F8000AAAFBBAFC7C0C159DF4F88819981019615
:100F90009983888310E0BEC0FC01EA59FF4F30817D
:100FA0008B599F4F7C0131111BC06E0196E5C90E14
:100FB000D11C4BE752E0B601CE012CDF892B11F496
:100FC00081E00BC041E852E0B601CE0123DF892B5E
:100FD00019F4F70110829EC082E0D7018C939AC069
:100FE000DC01EC91E23009F495C0CE018A5A9F4FA2
:100FF000DC012C91222309F48DC0B0E2EB9FF001BB
:101000001124E32B3197E932F10508F083C0EE5843
:10101000FF4F0C940312CE0121DE6C837D838E83FF
:101020009F8307D2C85BDF4F10C0C859DF4F81E0F4
:10103000213409F057C057C0CE016BDE6C8B7D8B1D
:101040008E8B9F8BF6D1C05BDF4F688379838A8359
:101050009B8360C0233509F05DC08C899D89AE8972
:10106000BF89B095A095909581959F4FAF4FBF4F89
:101070008C8B9D8BAE8BBF8B4DC0CE014ADE6C8FAF
:101080007D8F8E8F9F8F46C0273509F043C08C8D92
:101090009D8DAE8DBF8DB095A095909581959F4FFC
:1010A000AF4FBF4F8C8F9D8FAE8FBF8F33C0CE01A0
:1010B000D5DD6CA77DA78EA79FA72CC0CE01CEDD66
:1010C0006CAB7DAB8EAB9FAB25C0BC01CE01A4DD6C
:1010D0006C877D878E879F871DC0C859DF4F81E051
:1010E00021330CF480E0888315C00E945714CE5B36
:1010F000DF4F9927998388830DC0CE01AFDD6CAF98
:101100007DAF8EAF9FAF06C0CE01A8DD6CA37DA3DF
:101110008EA39FA3812FDF91CF911F91FF90EF901E
:10112000DF90CF900895CF92DF92EF92FF920F93CE
:101130001F93CF93DF931F92CDB7DEB76C01262F9D
:10114000FC01E759FF4F40815181628173814F5FFC
:101150005F4F6F4F7F4F40835183628373838C0156
:1011600009591F4F8B5A9F4F7C01243279F12CF47F
:101170002A3069F02D30E1F50AC02A3241F02C32D4
:10118000B9F5F601EC5AFF4F808182278083F80180
:1011900080818F3058F4F601E80FF11DEA5AFF4FB5
:1011A0001082C601298342DE298101C080E0F60158
:1011B000EA59FF4F90819F5F9083F801108291E080
:1011C0002A3209F090E0F70190832AC0F8011082DA
:1011D000F601EA59FF4F108272971082719682E0F1
:1011E0008083F7011082F601E859FF4F108217C083
:1011F000F80180818E3048F491E0980F9083F601D9
:10120000E80FF11DEA5AFF4F2083F7018081811119
:1012100006C0F601EC5AFF4F80818227808380E070
:101220000F90DF91CF911F910F91FF90EF90DF9082
:10123000CF900895CF92DF92EF92FF920F931F937A
:10124000CF93DF93E9016115710551F0FC01C0886E
:10125000D188E288F388FB01C082D182E282F382E6
:101260004115510551F0FC01C08CD18CE28CF38CFE
:10127000FA01C082D182E282F3822097F9F08C01D8
:10128000045B1F4FF80180819181A281B3818F3F60
:101290009F4FAF4FBF4F59F0CCD0F8010081118163
:1012A00022813381601B710B820B930B03C06FEFA4
:1012B0007FEFCB01688379838A839B83DF91CF9112
:1012C0001F910F91FF90EF90DF90CF900895AF9214
:1012D000BF92CF92DF92EF92FF920F931F93CF9323
:1012E000DF93CDB7DEB728970FB6F894DEBF0FBEF9
:1012F000CDBF5B018A01AE014F5F5F4FBE016B5FE7
:101300007F4F98DFCD80DE80EF80F8848FEFC816A6
:1013100089ECD8068AE9E8068BE3F80649F0C701AC
:10132000B601B4D720E034E244E759E445D704C01D
:1013300060E070E08AE794E4F50160837183828362
:101340009383FFEFCF16F9ECDF06FAE9EF06FBE334
:10135000FF0659F069817A818B819C8197D720E0C3
:1013600034E244E759E428D704C060E070E08AE73B
:1013700094E4F801608371838283938328960FB687
:10138000F894DEBF0FBECDBFDF91CF911F910F91BB
:10139000FF90EF90DF90CF90BF90AF9008951F9295
:1013A0000F920FB60F9211242F933F938F939F9319
:1013B000AF93BF938091DA039091DB03A091DC039C
:1013C000B091DD033091D90323E0230F2D3720F4B2
:1013D0000196A11DB11D05C026E8230F0296A11D8F
:1013E000B11D2093D9038093DA039093DB03A0937C
:1013F000DC03B093DD038091DE039091DF03A091C5
:10140000E003B091E1030196A11DB11D8093DE03BD
:101410009093DF03A093E003B093E103BF91AF91FA
:101420009F918F913F912F910F900FBE0F901F9022
:1014300018952FB7F8946091DA037091DB038091CF
:10144000DC039091DD032FBF08953FB7F89480919E
:10145000DE039091DF03A091E003B091E10326B594
:10146000A89B05C02F3F19F00196A11DB11D3FBFDC
:101470006627782F892F9A2F620F711D811D911D6C
:1014800042E0660F771F881F991F4A95D1F708958C
:10149000CF92DF92EF92FF92CF93DF936B017C01AB
:1014A000D4DFEB01C114D104E104F10479F083D657
:1014B000CCDF6C1B7D0B683E7340A0F381E0C81A43
:1014C000D108E108F108C851DC4FECCFDF91CF9192
:1014D000FF90EF90DF90CF9008958230910538F023
:1014E000880F991F880F991F05970197F1F70895A5
:1014F000789484B5826084BD84B5816084BD85B5EF
:10150000826085BD85B5816085BDEEE6F0E08081B5
:1015100081608083E1E8F0E01082808182608083D6
:10152000808181608083E0E8F0E080818160808359
:10153000E1EBF0E0808184608083E0EBF0E080818B
:1015400081608083E1E9F0E0808182608083808136
:1015500081608083E0E9F0E0808181608083E1EA5E
:10156000F0E0808182608083808181608083E0EA16
:10157000F0E0808181608083E1E2F1E0808182603F
:101580008083808181608083E0E2F1E080818160FE
:101590008083EAE7F0E080818460808380818260DC
:1015A00080838081816080838081806880831092C5
:1015B000C100089590E0FC013197E231F10508F097
:1015C0004BC0E556FF4F1FC7809180008F7703C047
:1015D000809180008F7D80938000089580918000AD
:1015E000877FF9CF84B58F7702C084B58F7D84BDA6
:1015F00008958091B0008F7703C08091B0008F7DF7
:101600008093B0000895809190008F7707C08091FB
:1016100090008F7D03C080919000877F8093900021
:1016200008958091A0008F7707C08091A0008F7DE2
:1016300003C08091A000877F8093A00008958091CF
:1016400020018F7707C0809120018F7D03C080919A
:101650002001877F809320010895CF93DF9390E04E
:10166000FC01E056FE4F2491FC01EA51FE4F8491AB
:10167000882349F190E0880F991FFC01E05AFD4F43
:10168000A591B4918A5B9D4FFC01C591D4919FB700
:10169000611108C0F8948C91209582238C938881E5
:1016A00082230AC0623051F4F8948C91322F309525
:1016B00083238C938881822B888304C0F8948C9137
:1016C000822B8C939FBFDF91CF9108950F931F932F
:1016D000CF93DF931F92CDB7DEB7282F30E0F9010B
:1016E000E65AFE4F8491F901E056FE4F1491F9013C
:1016F000EA51FE4F04910023C1F0882319F0698359
:1017000059DF6981E02FF0E0EE0FFF1FEA5BFD4F2C
:10171000A591B4919FB7F8948C91611103C0109575
:10172000812301C0812B8C939FBF0F90DF91CF91BC
:101730001F910F910895CF93DF93282F30E0F90187
:10174000E65AFE4F8491F901E056FE4FD491F9011B
:10175000EA51FE4FC491CC2389F081112BDFEC2F8D
:10176000F0E0EE0FFF1FE45DFD4FA591B4912C91C9
:101770002D2381E090E021F480E002C080E090E041
:10178000DF91CF910895FC01818D228D90E0805CE6
:101790009F4F821B91098F7399270895FC01918DAA
:1017A000828D981731F0828DE80FF11D858D90E0C4
:1017B00008958FEF9FEF0895FC01918D828D98170A
:1017C00061F0828DDF01A80FB11D5D968C91928D25
:1017D0009F5F9F73928F90E008958FEF9FEF089522
:1017E00080E99DE0892B39F080E090E0892B19F0A9
:1017F00097D1811124C08BE39EE0892B39F080E0E2
:1018000090E0892B19F037D281111CC080E090E064
:10181000892B41F080E090E0892B21F00E940000AC
:10182000811113C080E090E0892BA1F080E090E06E
:10183000892B81F00E94000081110AC008950E9446
:101840000000D9CF0E940000E1CF0E940000EACF43
:101850000C9400000895FC01848DDF01A80FB11DD8
:10186000A35ABF4F2C91848D90E001968F739927D6
:10187000848FA689B7892C93A089B1898C918064C3
:101880008C93938D848D981306C00288F389E02D84
:1018900080818F7D80830895CF93DF93EC01888DC5
:1018A0008823C1F0EA89FB89808185FD05C0A8896C
:1018B000B9898C9186FD0EC00FB607FCF5CF8081EB
:1018C00085FFF2CFA889B9898C9185FFEDCFCE0134
:1018D000C2DFE8CFDF91CF910895CF92DF92FF92E0
:1018E0000F931F93CF93DF931F92CDB7DEB76C0199
:1018F00081E0D60158968C9358975B969C915B97A4
:101900005C968C915C97981307C05096ED91FC9172
:101910005197808185FD2DC0F601038D10E00F5F8A
:101920001F4F0F731127F02EF601848DF81210C08F
:101930000FB607FCF9CFD6015096ED91FC91519767
:10194000808185FFF1CFC601698385DF6981ECCF96
:10195000838DE80FF11DE35AFF4F6083D6015B963C
:101960000C935B975296ED91FC9153978081806226
:101970000CC0D6015696ED91FC9157976083509616
:10198000ED91FC91519780818064808381E090E0AB
:101990000F90DF91CF911F910F91FF90DF90CF902B
:1019A0000895BF92CF92DF92EF92FF92CF93DF9391
:1019B000EC016A017B01B22EE889F98982E080831B
:1019C000411581EE58076105710599F060E079E0F5
:1019D0008DE390E0A7019601F4D42150310941092B
:1019E00051095695479537952795211580E1380778
:1019F00090F0E889F989108260E874E88EE190E05F
:101A0000A7019601DED421503109410951095695AB
:101A1000479537952795EC85FD853083EE85FF85C5
:101A20002083188EEC89FD89B082EA89FB89808148
:101A300080618083EA89FB89808188608083EA896C
:101A4000FB89808180688083EA89FB8980818F7D22
:101A50008083DF91CF91FF90EF90DF90CF90BF9088
:101A600008951F920F920FB60F9211240BB60F928A
:101A70002F938F939F93EF93FF93E091F203F09155
:101A8000F3038081E091F803F091F90382FD12C025
:101A900090818091FB038F5F8F732091FC038217ED
:101AA00051F0E091FB03F0E0EE51FC4F958F8093F5
:101AB000FB0301C08081FF91EF919F918F912F9146
:101AC0000F900BBE0F900FBE0F901F9018951F9296
:101AD0000F920FB60F9211240BB60F922F933F93D4
:101AE0004F935F936F937F938F939F93AF93BF9326
:101AF000EF93FF9382EE93E0AEDEFF91EF91BF9103
:101B0000AF919F918F917F916F915F914F913F9195
:101B10002F910F900BBE0F900FBE0F901F90189536
:101B200082EE93E030DE21E0892B09F420E0822F61
:101B300008951092E5031092E40388EE93E0A0E08C
:101B4000B0E08093E6039093E703A093E803B0939B
:101B5000E9038FEA92E09093E3038093E20385EC3C
:101B600090E09093EF038093EE0384EC90E09093E9
:101B7000F1038093F00380EC90E09093F303809363
:101B8000F20381EC90E09093F5038093F40382ECF0
:101B900090E09093F7038093F60386EC90E09093A7
:101BA000F9038093F8031092FB031092FC03109248
:101BB000FD031092FE0308951F920F920FB60F922D
:101BC00011240BB60F922F938F939F93EF93FF9354
:101BD000E0918F04F09190048081E0919504F09160
:101BE000960482FD12C09081809198048F5F8F735C
:101BF00020919904821751F0E0919804F0E0E158A7
:101C0000FB4F958F8093980401C08081FF91EF91E5
:101C10009F918F912F910F900BBE0F900FBE0F9041
:101C20001F9018951F920F920FB60F9211240BB6AA
:101C30000F922F933F934F935F936F937F938F9365
:101C40009F93AF93BF93EF93FF938FE794E003DEEF
:101C5000FF91EF91BF91AF919F918F917F916F9184
:101C60005F914F913F912F910F900BBE0F900FBE40
:101C70000F901F9018958FE794E085DD21E0892B68
:101C800009F420E0822F08951092820410928104BA
:101C900088EE93E0A0E0B0E0809383049093840406
:101CA000A0938504B09386048FEA92E09093800419
:101CB00080937F048DEC90E090938C0480938B0450
:101CC0008CEC90E090938E0480938D0488EC90E0EF
:101CD0009093900480938F0489EC90E09093920409
:101CE000809391048AEC90E0909394048093930401
:101CF0008EEC90E090939604809395041092980453
:101D00001092990410929A0410929B040895CF9215
:101D1000DF92EF92FF920F931F93CF93DF937C019B
:101D20006A01EB0100E010E00C151D0571F06991EE
:101D3000D701ED91FC910190F081E02DC70119953B
:101D4000892B19F00F5F1F4FEFCFC801DF91CF91A3
:101D50001F910F91FF90EF90DF90CF900895611544
:101D6000710581F0DB010D900020E9F7AD014150D4
:101D70005109461B570BDC01ED91FC910280F38168
:101D8000E02D199480E090E00895DC01ED91FC9144
:101D9000DB0114964D915C9115976D917C910280B9
:101DA000F381E02D1994DBCFDC01ED91FC910190E2
:101DB000F081E02D19946BEB72E0D1CF0F931F935C
:101DC000CF93DF93EC01E1DF8C01CE01F4DF800FD4
:101DD000911FDF91CF911F910F9108950F931F9342
:101DE000CF93DF93EC01BBDF8C01CE01E4DF800FEA
:101DF000911FDF91CF911F910F9108950F931F9322
:101E0000CF93DF93EC01D0DF8C01CE01D4DF800FC4
:101E1000911FDF91CF911F910F9108958F929F9203
:101E2000AF92BF92CF92DF92EF92FF920F931F93E8
:101E3000CF93DF93CDB7DEB7A1970FB6F894DEBF8F
:101E40000FBECDBF7C01C42EE52FCB01D22E19A22F
:101E500021E02D1510F02AE0D22E8E010F5D1F4FCC
:101E60008D2C912CA12CB12C6C2D7E2FA5019401D1
:101E7000A8D28C2DD29E80191124015011098A30CC
:101E800014F4805D01C0895CF8018083211531055F
:101E90004105510521F0C22EE32FCA01E5CFB8015B
:101EA000C7015DDFA1960FB6F894DEBF0FBECDBFB0
:101EB000DF91CF911F910F91FF90EF90DF90CF9026
:101EC000BF90AF909F908F900895CF92DF92EF9246
:101ED000FF920F931F93CF93DF93EC016A017B0175
:101EE0002115310579F4E881F9810190F081E02D27
:101EF000642FDF91CF911F910F91FF90EF90DF90B2
:101F0000CF9019942A303105D9F477FF18C06DE2CB
:101F10004BDF8C0144275527BA014C195D096E0926
:101F20007F092AE0CE017ADF800F911FDF91CF91E8
:101F30001F910F91FF90EF90DF90CF9008952AE0CE
:101F4000B701A601CE01DF91CF911F910F91FF90B4
:101F5000EF90DF90CF9062CF9A01AB01662757FDDB
:101F60006095762FB2CFFC01808191812DC3CF93F4
:101F7000DF93EC0188819981009709F025D31982BC
:101F800018821D821C821B821A82DF91CF910895D4
:101F90000F931F93CF93DF93EC018B016F5F7F4F04
:101FA00088819981A0D3009731F0998388831B831E
:101FB0000A8381E001C080E0DF91CF911F910F91F2
:101FC0000895CF93DF93EC0188819981892B29F0C3
:101FD0008A819B818617970758F4CE01D9DF882321
:101FE00041F08C819D81892B19F4E881F98110825F
:101FF00081E0DF91CF910895EF92FF920F931F93AD
:10200000CF93DF93EC017B018A01BA01DADF811102
:1020100003C0CE01ACDF06C01D830C83B7018881ED
:10202000998174D4CE01DF91CF911F910F91FF90D0
:10203000EF900895CF93DF93EC01FB01861797078C
:1020400051F0608171816115710521F044815581E4
:10205000D3DF01C08CDFCE01DF91CF910895FC0169
:10206000118210821382128215821482E3CFCF93E1
:10207000DF93EC016115710559F0FB01019000201F
:10208000E9F7AF0141505109461B570BB5DF01C0BD
:102090006EDFCE01DF91CF910895EF92FF920F9303
:1020A0001F93CF93DF93CDB7DEB7A1970FB6F89408
:1020B000DEBF0FBECDBF7C01CB01BA01F70111829B
:1020C0001082138212821582148242E0420F8E0126
:1020D0000F5F1F4FC1D1BC01C701C9DFA1960FB669
:1020E000F894DEBF0FBECDBFDF91CF911F910F914E
:1020F000FF90EF900895EF92FF920F931F93CF936D
:10210000DF93EC017B010C811D816115710511F4D8
:1021100080E014C04115510581F0040F151FB8016E
:1021200050DF8823A9F3288139818C819D81B701F3
:10213000820F931FEBD31D830C8381E0DF91CF913E
:102140001F910F91FF90EF900895CF93DF93EC01D3
:10215000FB014481558160817181CDDF811102C015
:10216000CE0105DFCE01DF91CF910895CF93DF93AC
:10217000EC016115710561F0FB0101900020E9F7A8
:10218000AF0141505109461B570BB5DF811102C009
:10219000CE01EDDECE01DF91CF9108950895A8D94B
:1021A000FDDF0E941102C0EFDBE00E9404032097D4
:1021B000E1F316DBFACF08950CD0BAC0B2D040F0EC
:1021C000A9D030F021F45F3F19F09BC05111E4C059
:1021D0009EC0BFD098F39923C9F35523B1F3951B43
:1021E000550BBB27AA2762177307840738F09F5F38
:1021F0005F4F220F331F441FAA1FA9F333D00E2EA7
:102200003AF0E0E830D091505040E695001CCAF713
:1022100029D0FE2F27D0660F771F881FBB1F2617D8
:1022200037074807AB07B0E809F0BB0B802DBF01AB
:10223000FF2793585F4F2AF09E3F510568F061C019
:10224000ABC05F3FECF3983EDCF3869577956795DE
:10225000B795F7959F5FC9F7880F911D969587955C
:1022600097F90895E1E0660F771F881FBB1F62177B
:1022700073078407BA0720F0621B730B840BBA0B39
:10228000EE1F88F7E0950895E89409C097FB3EF4A7
:1022900090958095709561957F4F8F4F9F4F9923B3
:1022A000A9F0F92F96E9BB279395F6958795779531
:1022B0006795B795F111F8CFFAF4BB0F11F460FFF1
:1022C0001BC06F5F7F4F8F4F9F4F16C0882311F049
:1022D00096E911C0772321F09EE8872F762F05C05D
:1022E000662371F096E8862F70E060E02AF09A95F8
:1022F000660F771F881FDAF7880F9695879597F9ED
:10230000089597F99F6780E870E060E008959FEF77
:1023100080EC089500240A9416161706180609067C
:10232000089500240A94121613061406050608954B
:10233000092E0394000C11F4882352F0BB0F40F4D3
:10234000BF2B11F460FF04C06F5F7F4F8F4F9F4F13
:10235000089557FD9058440F551F59F05F3F71F095
:102360004795880F97FB991F61F09F3F79F08795FC
:102370000895121613061406551FF2CF4695F1DF85
:1023800008C0161617061806991FF1CF8695710515
:10239000610508940895E894BB2766277727CB0149
:1023A00097F90895DB018F939F9333D0BF91AF913D
:1023B000A29F800D911DA39F900DB29F900D11249F
:1023C0000895A1E21A2EAA1BBB1BFD010DC0AA1F76
:1023D000BB1FEE1FFF1FA217B307E407F50720F08E
:1023E000A21BB30BE40BF50B661F771F881F991F09
:1023F0001A9469F760957095809590959B01AC0152
:10240000BD01CF010895EE0FFF1F0590F491E02D5F
:10241000199413D0A59F900DB49F900DA49F800D8B
:10242000911D11240895B7FFF4CFF3DF821B930BA6
:1024300008950790F691E02D1994A29FB001B39FE3
:10244000C001A39F700D811D1124911DB29F700DBD
:10245000811D1124911D0895EF920F931F93CF9327
:10246000DF93E80147FF02C034E101C034E0E42F0C
:10247000FF27E7FDF095F7FF03C0F195E195F1091E
:10248000E32E022F2E2FAE0150D2CE01DF91CF913D
:102490001F910F91EF900895CF93DF9382309105B4
:1024A00010F482E090E0E0911E05F0911F0520E01D
:1024B00030E0A0E0B0E0309739F140815181481719
:1024C0005907B8F04817590771F482819381109722
:1024D00029F013969C938E9312972CC090931F050E
:1024E00080931E0527C02115310531F0421753078F
:1024F00018F0A901DB0101C0EF019A01BD01DF0164
:102500000280F381E02DD7CF21153105F9F0281B8A
:10251000390B2430310580F48A819B816115710566
:1025200021F0FB019383828304C090931F05809365
:102530001E05FE01329644C0FE01E20FF31F819397
:10254000919322503109398328833AC020911C0588
:1025500030911D05232B41F420910202309103029A
:1025600030931D0520931C0520910002309101023B
:102570002115310541F42DB73EB740910402509129
:102580000502241B350BE0911C05F0911D05E21797
:10259000F307A0F42E1B3F0B2817390778F0AC0186
:1025A0004E5F5F4F2417350748F04E0F5F1F509363
:1025B0001D0540931C058193919302C0E0E0F0E07B
:1025C000CF01DF91CF910895CF93DF93009709F466
:1025D00087C0FC01329713821282C0911E05D091F0
:1025E0001F05209781F420813181280F391F8091A8
:1025F0001C0590911D058217930779F5F0931D0531
:10260000E0931C056DC0DE0120E030E0AE17BF078F
:1026100050F412964D915C9113979D01411551050F
:1026200009F1DA01F3CFB383A28340815181840F92
:10263000951F8A179B0771F48D919C911197840FB8
:10264000951F02969183808312968D919C9113978A
:10265000938382832115310529F4F0931F05E093BC
:102660001E053EC0D9011396FC93EE9312974D912F
:102670005D91A40FB51FEA17FB0779F48081918162
:10268000840F951F0296D90111969C938E93828197
:10269000938113969C938E931297E0E0F0E08A81E9
:1026A0009B81009719F0FE01EC01F9CFCE01029653
:1026B00028813981820F931F20911C0530911D05BF
:1026C0002817390769F4309729F410921F051092E2
:1026D0001E0502C013821282D0931D05C0931C05F3
:1026E000DF91CF9108956F927F928F929F92AF92D8
:1026F000BF92CF92DF92EF92FF920F931F93CF93EF
:10270000DF93EC01CB01209779F4DF91CF911F91FA
:102710000F91FF90EF90DF90CF90BF90AF909F9080
:102720008F907F906F90B8CEFE01E60FF71F9E014D
:1027300022503109E217F30708F4A8C0D9010D911E
:102740001C91119706171707B0F00530110508F412
:102750009BC0A801445051094617570708F494C07C
:1027600002501109061B170B019311936D937C9373
:10277000CF012ADF89C05B01A01AB10A4E01800E89
:10278000911EA0911E05B0911F05612C712C60E077
:1027900070E0109709F449C0A815B905C9F5ED9086
:1027A000FC901197670142E0C40ED11CCA14DB04EF
:1027B00078F147018A189B08640142E0C40ED11CDD
:1027C0001296BC9012971396AC91B5E0CB16D1043B
:1027D00040F0B282A38391828082D9018D939C9331
:1027E00009C00E5F1F4F0E0D1F1DF90111830083DD
:1027F000EB2DFA2F6115710531F0DB011396FC9377
:10280000EE93129741C0F0931F05E0931E053CC064
:102810006D917C9111976616770608F43B01BD0116
:1028200012960D90BC91A02DB4CF60911C057091B3
:102830001D0568157905E9F468167906D0F440910C
:102840000002509101024115510541F44DB75EB7A8
:102850006091040270910502461B570BE417F507BF
:10286000A8F4F0931D05E0931C05F9019183808382
:102870000BC012DE7C01009749F0A801BE0134D0E4
:10288000CE01A2DEC70104C0CE0102C080E090E00C
:10289000DF91CF911F910F91FF90EF90DF90CF903C
:1028A000BF90AF909F908F907F906F900895FC01A4
:1028B00088279927E89421912032E9F3293010F0F4
:1028C0002E30C8F32B3239F02D3231F4689403C026
:1028D00024D0820F911D219120532A30C8F31EF479
:1028E000909581959F4F0895FB01DC0102C00190F6
:1028F0000D9241505040D8F70895FB01DC018D91B5
:10290000019080190110D9F3990B0895FB01DC01A6
:1029100001900D920020E1F708957AE0979F902DA5
:10292000879F802D910D112408956F927F929F9221
:10293000AF92BF92CF92DF92EF92FF920F931F93CD
:10294000CF93DF93CDB7DEB729970FB6F894DEBFEC
:102950000FBECDBF6A01B22E102F0C3320F4FF241E
:10296000F394F00E02C04CE3F42E0F2D27E0AE01DD
:102970004F5F5F4F57D17981272F2970213031F078
:10298000E1FC06C0E0FC06C060E005C06DE203C0EB
:102990006BE201C060E2AE2DA07173FF36C066230A
:1029A00011F084E001C083E08B1510F4B81A01C067
:1029B000B12CA1110BC0F6018B2D90E2882319F0E8
:1029C00091938150FBCFCB0CD11CB12C662331F0FD
:1029D000F601608396012F5F3F4F6901C6010396A0
:1029E000E2FE05C02EE4F601208331E404C02EE6A9
:1029F000F601208331E631832283FC012B2D30E266
:102A00002223F1F131932150FBCF72FF40C06623A6
:102A100011F084E001C083E08B1510F4B81A01C0F6
:102A2000B12CA1110BC0F6018B2D90E2882319F077
:102A300091938150FBCFCB0CD11CB12C662331F08C
:102A4000F601608396012F5F3F4F6901C60103962F
:102A5000E2FE07C029E4F60120832EE4218326E468
:102A600006C029E6F60120832EE6218326E622838E
:102A7000FC012B2D30E2222319F031932150FBCFA2
:102A8000FC01EB0DF11D10828EEF9FEFB7C0B1E09E
:102A9000611101C0B0E04B2F50E01816190624F464
:102AA0009C012F5F3F4F02C021E030E0240F351F13
:102AB000112329F0412F50E04F5F5F4F02C040E0EB
:102AC00050E0420F531F2B2D30E04217530714F4F0
:102AD000B41A01C0B12C2E2D287159F4F6012B2DFA
:102AE00030E2222319F031932150FBCFCB0CD11CC3
:102AF000B12CBB2331F0F601608396012F5F3F4F6D
:102B00006901A1110BC0F6012B2D30E3222319F02E
:102B100031932150FBCFCB0CD11CB12CF80E0A8184
:102B2000372F3071A32E74FF03C0013309F4FA94D8
:102B30001F142CF42F2D293018F028E001C021E0BB
:102B4000682F392F97FF02C060E030E0462F532FE7
:102B5000612C712C3EE2932EBC01621B71099B011A
:102B6000DC01A41BB50BE1E0F0E0EC0FFD1FAE0FA4
:102B7000BF1FE12EF12CF194E194F1084F3FFFEFDC
:102B80005F0731F4F6019082B6016F5F7F4F6B01F2
:102B9000841795074CF02417350734F4BD01660DF2
:102BA000771DFB01118101C010E341505109FFEF76
:102BB0006F1A7F0AB6016F5F7F4F4E155F0524F0D5
:102BC000F60110836B01DACF4817590739F4063341
:102BD00020F4053319F4A11001C011E3F6011083AC
:102BE000FB018B2D90E2882319F091938150FBCF4C
:102BF000FB01EB0DF11D108280E090E029960FB6ED
:102C0000F894DEBF0FBECDBFDF91CF911F910F9122
:102C1000FF90EF90DF90CF90BF90AF909F907F900C
:102C20006F900895283008F027E03327DA01990FD4
:102C3000311D87FD916000966105710539F43260A0
:102C40002E5F3D9330E32A95E1F708959F3F30F0E2
:102C500080387105610509F03C5F3C5F3D93913020
:102C600008F08068911DDF93CF931F930F93FF921D
:102C7000EF92192F987F9695E92F96959695E90FE3
:102C8000FF27EC52FD4F99273327EE24FF24A7019D
:102C9000E70105900894079428F4360FE71EF81E04
:102CA000491F511D660F771F881F991F0694A1F7B2
:102CB0000590079428F4E70EF81E491F561FC11D02
:102CC000770F881F991F661F0694A1F70590079438
:102CD00028F4F80E491F561FC71FD11D880F991FD2
:102CE000661F771F0694A1F70590079420F4490FFB
:102CF000561FC71FD81F990F661F771F881F06947E
:102D0000A9F784911095177041F0D695C7955795FE
:102D10004795F794E7941A95C1F7EAE7F2E06894CB
:102D20001590159135916591959105907FE2739578
:102D3000E118F10A430B560BC90BD009C0F7E10C9F
:102D4000F11E431F561FC91FD01D7EF4703311F4AE
:102D50008A95E6CFE894015030F0080F0AF4002776
:102D6000021708F4202F2395022F7A3328F079E3F5
:102D70007D932A95E9F710C07D932A9589F60694EC
:102D800097956795379517951794E118F10A430BB6
:102D9000560BC90BD00998F023957E9173957A3321
:102DA00008F070E37C932013B8F77E9170617D93F7
:102DB00030F0839571E37D9370E32A95E1F7112458
:102DC000EF90FF900F911F91CF91DF91992787FD91
:082DD00090950895F894FFCFDF
:102DD8000000200580002431002B434D54000100E1
:102DE800010050617373656E67657273203A200045
:102DF800415445300041542B434D47463D31004135
:102E0800542B434E4D493D322C322C302C302C3033
:102E18000041542B434D47533D223831323931322A
:102E280037323937220D003B004275732046756CE6
:102E38006C00424F415244494E4720504F494E542E
:102E4800204100000000009705870E4750524D436F
:102E5800004750474741004E004E4E4500454E45FD
:102E680000455345005353450053005353570057EB
:102E7800535700574E57004E4E5700000000006D44
:102E88000C870EC30BDC0BCE0B4C0C0D0A006E61CD
:0C2E98006E00696E66006F7666002E000A
:020000023000CC
:10E000000D9489F10D94B2F10D94B2F10D94B2F129
:10E010000D94B2F10D94B2F10D94B2F10D94B2F1F0
:10E020000D94B2F10D94B2F10D94B2F10D94B2F1E0
:10E030000D94B2F10D94B2F10D94B2F10D94B2F1D0
:10E040000D94B2F10D94B2F10D94B2F10D94B2F1C0
:10E050000D94B2F10D94B2F10D94B2F10D94B2F1B0
:10E060000D94B2F10D94B2F10D94B2F10D94B2F1A0
:10E070000D94B2F10D94B2F10D94B2F10D94B2F190
:10E080000D94B2F10D94B2F10D94B2F10D94B2F180
:10E090000D94B2F10D94B2F10D94B2F10D94B2F170
:10E0A0000D94B2F10D94B2F10D94B2F10D94B2F160
:10E0B0000D94B2F10D94B2F10D94B2F10D94B2F150
:10E0C0000D94B2F10D94B2F10D94B2F10D94B2F140
:10E0D0000D94B2F10D94B2F10D94B2F10D94B2F130
:10E0E0000D94B2F141546D656761323536300041AF
:10E0F000726475696E6F206578706C6F72657220DE
:10E1000073746B3530305632206279204D4C530099
:10E11000426F6F746C6F616465723E004875683F52
:10E1200000436F6D70696C6564206F6E203D200048
:10E130004350552054797065202020203D20005FF9
:10E140005F4156525F415243485F5F3D2000415658
:10E1500052204C696243205665723D20004743437C
:10E160002056657273696F6E203D20004350552024
:10E1700049442020202020203D20004C6F7720663D
:10E18000757365202020203D20004869676820665F
:10E190007573652020203D200045787420667573D6
:10E1A00065202020203D20004C6F636B2066757336
:10E1B000652020203D20004D617220203720323024
:10E1C000313300312E362E3800342E332E350056A2
:10E1D00023202020414444522020206F7020636F70
:10E1E00064652020202020696E73747275637469E1
:10E1F0006F6E2061646472202020496E74657272B3
:10E20000757074006E6F20766563746F7200726A49
:10E210006D702020006A6D70200057686174207056
:10E220006F72743A00506F7274206E6F7420737541
:10E2300070706F72746564004D7573742062652030
:10E2400061206C6574746572002000577269747483
:10E25000696E672045450052656164696E672045B7
:10E26000450045452065727220636E743D00504F35
:10E27000525400303D5A65726F2061646472003FF1
:10E280003D43505520737461747300403D454550C3
:10E29000524F4D207465737400423D426C696E6B41
:10E2A000204C454400453D44756D70204545505215
:10E2B0004F4D00463D44756D7020464C415348001B
:10E2C000483D48656C70004C3D4C69737420492F83
:10E2D0004F20506F72747300513D51756974005234
:10E2E0003D44756D702052414D00563D73686F7707
:10E2F00020696E7465727275707420566563746FF0
:10E30000727300593D506F727420626C696E6B00BD
:10E310002A0011241FBECFEFD1E2DEBFCDBF01E046
:10E320000CBF12E0A0E0B2E0EEE1FDEF03E00BBFB6
:10E3300002C007900D92A030B107D9F712E0A0E01B
:10E34000B2E001C01D92AE30B107E1F70F9460F367
:10E350000D948DFE01E20EBF0FEF0DBF11241FBE05
:10E360000D9460F30D9400F020E030E040ED57E0B4
:10E3700005C0FA013197F1F72F5F3F4F2817390792
:10E38000C0F308959C01260F311DC901A0E0B0E043
:10E390002F5F3F4FABBFFC018791882361F08093D3
:10E3A000C6008091C00086FFFCCF8091C0008064D1
:10E3B0008093C000EACF08958DE08093C6008091DD
:10E3C000C00086FFFCCF8091C00080648093C000B5
:10E3D0008AE08093C6008091C00086FFFCCF8091C8
:10E3E000C00080648093C00008950F94C2F10F9420
:10E3F000DCF10895FC019081992359F09093C600B7
:10E400008091C00086FFFCCF8091C0008064809323
:10E41000C0003196992379F70895282F982F929567
:10E420009F70892F805D8A3308F0895F8093C600D2
:10E430008091C00086FFFCCF8091C00080648093F3
:10E44000C000822F8F70982F905D9A3308F0995FEB
:10E450009093C6008091C00086FFFCCF8091C000E1
:10E4600080648093C00008959C01FB01853691056E
:10E470001CF46330710594F0C90164E670E00F94F8
:10E480002EFE605D7F4F6093C6008091C00086FFC6
:10E49000FCCF8091C00080648093C0002B30310598
:10E4A00014F43297B4F0C90164E670E00F942EFEC4
:10E4B0006AE070E00F942EFE605D7F4F6093C600AF
:10E4C0008091C00086FFFCCF8091C0008064809363
:10E4D000C000C9016AE070E00F942EFEC0968093E0
:10E4E000C6008091C00086FFFCCF8091C000806490
:10E4F0008093C00008951F93182F8EE692EE60E07F
:10E500000F94C2F11093C6008091C00086FFFCCF2B
:10E510008091C00080648093C0000F94DCF11F9153
:10E5200008952F923F924F925F926F927F928F92B7
:10E530009F92AF92BF92CF92DF92EF92FF920F9392
:10E540001F93DF93CF93CDB7DEB762970FB6F894E2
:10E55000DEBF0FBECDBF382E622ECA01DB015C01CB
:10E560006D01772420E2222E2E010894411C511CBB
:10E570008BC081E0A81680E0B80681E0C80680E084
:10E58000D80628F0C601AA27BB270F940DF2BB2797
:10E59000AD2D9C2D8B2D0F940DF28A2D0F940DF225
:10E5A0002092C6008091C00086FFFCCF8091C00001
:10E5B00080648093C0009DE29093C6008091C0006B
:10E5C00086FFFCCF8091C00080648093C0002092C1
:10E5D000C6008091C00086FFFCCF8091C00080649F
:10E5E0008093C00019828601750188249924A1E0D6
:10E5F0003A1651F03A1620F0B2E03B1661F409C029
:10E600000BBFF701779007C0C7010F9477FE782EF4
:10E6100002C0F7017080872D0F940DF22092C60082
:10E620008091C00086FFFCCF8091C0008064809301
:10E63000C000872D8052F401EF70F0708F3520F408
:10E64000E40DF51D708204C0E40DF51D8EE280839B
:10E650000894E11CF11C011D111D0894811C911CE2
:10E6600090E18916910409F0C2CF80E190E0A0E02A
:10E67000B0E0A80EB91ECA1EDB1E198AC2010F9493
:10E68000FAF10F94DCF16A94662009F072CF629679
:10E690000FB6F894DEBF0FBECDBFCF91DF911F91B3
:10E6A0000F91FF90EF90DF90CF90BF90AF909F9031
:10E6B0008F907F906F905F904F903F902F90089534
:10E6C0002F923F924F925F926F927F928F929F9282
:10E6D000AF92BF92CF92DF92EF92FF920F931F9370
:10E6E000DF93CF93CDB7DEB7CD53D1400FB6F894BB
:10E6F000DEBF0FBECDBF01E20EBF0FEF0DBF94B75F
:10E70000F894A89514BE80916000886180936000A1
:10E7100010926000789493FF05C0E0910002F091A0
:10E7200001021995279A2F9A8091C00082608093E8
:10E73000C00080E18093C40088E18093C1000000A4
:10E74000EE24FF24870144E0A42EB12CCC24DD2448
:10E7500024C0C5010197F1F70894E11CF11C011DCB
:10E76000111D21E2E2162EE4F20620E0020720E06D
:10E77000120718F031E0C32ED12CC801B70127ECE5
:10E780003BE140E050E00F9441FE611571058105C9
:10E79000910519F485B1805885B98091C00087FD35
:10E7A00003C0C114D104A9F2A6014F5F5F4FC25E3E
:10E7B000DE4F59834883CE51D140C25EDE4F8881FF
:10E7C0009981CE51D140019711F00D9410FEC05D9A
:10E7D000DE4F19821882C053D14060E0C15DDE4F28
:10E7E0001882CF52D14088249924C35DDE4F19820C
:10E7F0001882CD52D140C05EDE4F188219821A8233
:10E800001B82C052D140CE5CDE4F188219821A8220
:10E810001B82C253D140EE24FF2487010BBFF701B6
:10E8200007911691C45CDE4F19830883CC53D14005
:10E830000D940BFEC25EDE4F28813981CE51D1404E
:10E840002130310509F52091C600C25EDE4F1982E4
:10E850001882CE51D14022C02F5F3F4F4F4F5F4FA4
:10E86000213082E138078AE7480780E0580780F0C6
:10E87000C45CDE4FE881F981CC53D140EF5FFF4F9C
:10E8800019F0EE27FF27099420E030E040E050E047
:10E890008091C00087FFE0CF2091C600C35DDE4FAE
:10E8A00048815981CD52D1404F5F5F4FC35DDE4FEC
:10E8B00059834883CD52D140213209F063C64A3092
:10E8C000510508F05FC60894811C911C53E0851621
:10E8D000910409F059C600E010E018C081E280936D
:10E8E000C6008091C00086FFFCCF8091C00080648C
:10E8F0008093C0002F5F3F4F2931310579F70F9486
:10E90000DCF10F5F1F4F0530110519F020E030E0FA
:10E91000E5CF10920A0210920B0210920C02109294
:10E920000D02109206021092070210920802109235
:10E930000902109202021092030210920402109235
:10E9400005028FEE90EE60E00F94F5F180E191EE1C
:10E9500060E00F94C2F18091C00087FFFCCF9091DE
:10E96000C600903608F09F759032B8F09093C600BC
:10E970008091C00086FFFCCF8091C00080648093AE
:10E98000C000A0E2A093C6008091C00086FFFCCF2B
:10E990008091C00080648093C000983409F4D7C18E
:10E9A0009934B8F4923409F459C1933458F490333B
:10E9B00019F1903308F4E3C59F33A1F1903409F0C5
:10E9C000DEC5BDC0953409F470C1963409F0D7C5D1
:10E9D00098C1923509F42BC2933538F49C3409F46C
:10E9E000F5C1913509F0CBC518C2963509F445C279
:10E9F000993509F0C4C567C483E792EE62E00F94CD
:10EA0000F5F110920602109207021092080210927D
:10EA1000090210920A0210920B0210920C0210923C
:10EA20000D0213C18FE792EE62E00F94F5F18FEEC5
:10EA300090EE60E00F94F5F181E291EE60E00F94CA
:10EA4000C2F187EB91EE60E00F94F5F180E391EE77
:10EA500060E00F94C2F184EE90EE60E00F94F5F167
:10EA60008FE391EE60E00F94C2F186E090E061E008
:10EA700070E00F9434F20F94DCF18DE591EE60E0DC
:10EA80000F94C2F189EC91EE60E00F94F5F18EE401
:10EA900091EE60E00F94C2F183EC91EE60E00F9490
:10EAA000F5F18CE691EE60E00F94C2F18EE10F94E7
:10EAB0000DF288E90F940DF281E00F940DF20F949E
:10EAC000DCF18BE791EE60E00F94C2F119E0E0E039
:10EAD000F0E010935700E4918E2F0F940DF20F94F5
:10EAE000DCF18AE891EE60E00F94C2F1E3E0F0E03F
:10EAF00010935700E4918E2F0F940DF20F94DCF1D8
:10EB000089E991EE60E00F94C2F1E2E0F0E0109349
:10EB10005700E4918E2F0F940DF20F94DCF188EAE8
:10EB200091EE60E00F94C2F1E1E0F0E01093570045
:10EB30001491812F0F940DF20F94DCF107CF8BE825
:10EB400092EE62E00F94F5F18BE492EE60E00F94A8
:10EB5000F5F10F94DCF100E010E019C0C8016F2D51
:10EB60000F947FFEFF2031F489E492EE60E00F9471
:10EB7000C2F10BC0F092C6008091C00086FFFCCFAE
:10EB80008091C00080648093C0000F5F1F4FC80158
:10EB900081519F41A0E0B0E0ABBFFC01F790BAE229
:10EBA000FB1621F0E2E000301E07C1F60F94DCF105
:10EBB0000F94DCF187E592EE60E00F94F5F10F948D
:10EBC000DCF1CC24DD2400E010E01EC0C8010F946D
:10EBD00077FEF82E882331F489E492EE60E00F94FA
:10EBE000C2F10BC08093C6008091C00086FFFCCFAD
:10EBF0008091C00080648093C000FE1419F00894D6
:10EC0000C11CD11C0F5F1F4FC80181519F41A0E063
:10EC1000B0E0ABBFFC01E790FAE2EF1621F022E092
:10EC20000030120799F60F94DCF10F94DCF182E6C4
:10EC300092EE60E00F94C2F1C60161E070E00F94C3
:10EC400034F20F94DCF10F94DCF110920202109276
:10EC50000302109204021092050278CE89E992EE26
:10EC600062E00F94F5F1279A2F9A16C02F9880E052
:10EC700090E0E0EDF7E03197F1F7019684369105E9
:10EC8000C1F72F9A80E090E0E0EDF7E03197F1F7DF
:10EC9000019684369105C1F78091C00087FFE6CFC9
:10ECA0008091C00087FFFCCF64C485EA92EE62E0E9
:10ECB0000F94F5F140910202509103026091040219
:10ECC0007091050281E020E10F9491F2809102029F
:10ECD00090910302A0910402B091050280509F4FD1
:10ECE000AF4FBF4F8093020290930302A0930402A0
:10ECF000B093050280509041A040B04008F426CE69
:10ED0000A4CF83EB92EE62E00F94F5F140910602FE
:10ED100050910702609108027091090280E020E1A1
:10ED20000F9491F28091060290910702A09108023F
:10ED3000B091090280509F4FAF4FBF4F80930602A2
:10ED400090930702A0930802B0930902FFCD80ECD4
:10ED500092EE62E00F94F5F183E792EE60E00F949B
:10ED6000F5F18FE792EE60E00F94F5F18BE892EE0B
:10ED700060E00F94F5F189E992EE60E00F94F5F10F
:10ED800085EA92EE60E00F94F5F183EB92EE60E09D
:10ED90000F94F5F180EC92EE60E00F94F5F187ECC2
:10EDA00092EE60E00F94F5F188ED92EE60E00F9442
:10EDB000F5F18FED92EE60E00F94F5F18AEE92EEB0
:10EDC00060E00F94F5F183E093EEBDCD87EC92EE19
:10EDD00062E00F94F5F181E40F947BF282E40F94EA
:10EDE0007BF283E40F947BF284E40F947BF285E45E
:10EDF0000F947BF286E40F947BF287E40F947BF20E
:10EE000088E40F947BF28AE40F947BF28BE40F94F6
:10EE10007BF28CE40F947BF299CD88ED92EE62E068
:10EE20000F94F5F1772473948824992409C48FED05
:10EE300092EE62E00F94F5F140910A0250910B02BC
:10EE400060910C0270910D0282E020E10F9491F22A
:10EE500080910A0290910B02A0910C02B0910D02D8
:10EE600080509F4FAF4FBF4F80930A0290930B0289
:10EE7000A0930C02B0930D0269CD8AEE92EE62E08F
:10EE80000F94F5F184EE90EE60E00F94F5F18FECC5
:10EE900091EE60E00F94F5F1662477244301CC5D98
:10EEA000DE4F19821882C452D140D401C301B695F5
:10EEB000A79597958795CA5DDE4F88839983AA8326
:10EEC000BB83C652D140CC5DDE4FA881B981C4520C
:10EED000D1401196CC5DDE4FB983A883C452D14096
:10EEE000CD0162E070E00F9434F2B0E2B093C6005E
:10EEF0008091C00086FFFCCF8091C0008064809329
:10EF0000C000EDE2E093C6008091C00086FFFCCF18
:10EF10008091C00080648093C000F0E2F093C6004E
:10EF20008091C00086FFFCCF8091C00080648093F8
:10EF3000C000CA5DDE4FE880F9800A811B81C6529D
:10EF4000D140BB27A12F902F8F2D0F940DF2CA5DBA
:10EF5000DE4F8881C652D1400F940DF2B0E2FB2EF5
:10EF6000F092C6008091C00086FFFCCF8091C00067
:10EF700080648093C0000DE30093C6008091C000C0
:10EF800086FFFCCF8091C00080648093C00010E2B7
:10EF90001093C6008091C00086FFFCCF8091C00016
:10EFA00080648093C0008BBEF3012791C65DDE4F65
:10EFB0002883CA52D140A22EBB24CC24DD2408943D
:10EFC000611C711C811C911C8BBEF3018791282E42
:10EFD0003324442455240894611C711C811C911C09
:10EFE0008BBEF3013791C55DDE4F3883CB52D140E4
:10EFF0000894611C711C811C911C8BBEF30147910C
:10F00000C45DDE4F4883CC52D140ADEFEA2EAFEF66
:10F01000FA2EAFEF0A2FAFEF1A2F6E0C7F1C801E57
:10F02000911E142D032DF22CEE24EA0CFB1C0C1D5A
:10F030001D1D0F940DF220E22093C6008091C000A8
:10F0400086FFFCCF8091C00080648093C000C65DC5
:10F05000DE4F8881CA52D1400F940DF230E23093D6
:10F06000C6008091C00086FFFCCF8091C000806404
:10F070008093C000C45DDE4F8881CC52D1400F9494
:10F080000DF240E24093C6008091C00086FFFCCFA5
:10F090008091C00080648093C000C55DDE4F888190
:10F0A000CB52D1400F940DF250E25093C6008091A4
:10F0B000C00086FFFCCF8091C00080648093C000B8
:10F0C0008FEFE8168FEFF80680E0080780E018075A
:10F0D00031F484E092EE60E00F94C2F1DFC0D80119
:10F0E000C7018070907CA070B0708050904CA040A0
:10F0F000B040D1F52FEF3FE340E050E0E222F322B1
:10F1000004231523CA5DDE4FA880B980CA80DB8046
:10F11000C652D140AE0CBF1CC01ED11EAA0CBB1CD7
:10F12000CC1CDD1C8EE092EE60E00F94C2F1BB2798
:10F13000A12F902F8F2D0F940DF28E2D0F940DF285
:10F1400030E23093C6008091C00086FFFCCF8091F2
:10F15000C00080648093C0004EE34093C60080915D
:10F16000C00086FFFCCF87C08EE09EEFA0E0B0E03D
:10F17000E822F9220A231B239CE0E91694E9F90608
:10F1800090E0090790E0190709F088C0C45DDE4FE0
:10F19000A881CC52D140EA2EFF2400E010E0102FCD
:10F1A0000F2DFE2CEE24C55DDE4FB881CB52D14031
:10F1B000EB0EF11C011D111DD601C501817090706F
:10F1C000A070B070DC0199278827E80EF91E0A1F8D
:10F1D0001B1F20EF30E040E050E0A222B322C42207
:10F1E000D52241E1AA0CBB1CCC1CDD1C4A95D1F7F1
:10F1F000EA0CFB1C0C1D1D1D81E090E0A0E0B0E0BE
:10F20000282239224A225B2235E1220C331C441C7D
:10F21000551C3A95D1F7E20CF31C041D151D57013E
:10F220006801AA0CBB1CCC1CDD1C85E192EE60E0E1
:10F230000F94C2F1C801AA27BB270F940DF2BB2778
:10F24000A12F902F8F2D0F940DF28E2D0F940DF274
:10F2500090E29093C6008091C00086FFFCCF809121
:10F26000C00080648093C000AEE3A093C60080918C
:10F27000C00086FFFCCF8091C00080648093C000F6
:10F28000C601AA27BB270F940DF2BB27AD2D9C2DDD
:10F290008B2D0F940DF28A2D0F940DF20F94DCF14B
:10F2A000CC5DDE4FE881F981C452D140F99709F471
:10F2B0004DCBF4E0EF2EF12C012D112D6E0C7F1CA7
:10F2C000801E911EF2CD83E093EE62E00F94F5F183
:10F2D0008AE192EE60E00F94C2F18091C00087FF56
:10F2E000FCCF1091C6001F751093C6008091C0001E
:10F2F00086FFFCCF8091C00080648093C0000F9493
:10F30000DCF1812F81548A3108F036C1163409F4BA
:10F3100095C0173490F4133409F44EC0143430F40B
:10F320001134F1F0123409F01DC130C0143409F465
:10F3300059C0153409F016C16BC01A3409F4C4C0A1
:10F340001B3438F4173409F48FC0183409F00AC19B
:10F35000A1C01B3409F4D2C01C3409F003C1E8C0B9
:10F360008FEF81B90DC082B1809582B980E090E0C5
:10F37000E0EDF7E03197F1F70196883C9105C1F790
:10F380008091C00087FFEFCF12B8EFC08FEF84B934
:10F390000DC085B1809585B980E090E0E0EDF7E0A3
:10F3A0003197F1F70196883C9105C1F78091C00033
:10F3B00087FFEFCF15B8D9C08FEF87B90DC088B1DF
:10F3C000809588B980E090E0E0EDF7E03197F1F7C3
:10F3D0000196883C9105C1F78091C00087FFEFCF6F
:10F3E00018B8C3C08FEF8AB90DC08BB180958BB9A7
:10F3F00080E090E0E0EDF7E03197F1F70196883C8E
:10F400009105C1F78091C00087FFEFCF1BB8ADC059
:10F410008FEF8DB90DC08EB180958EB980E090E0F0
:10F42000E0EDF7E03197F1F70196883C9105C1F7DF
:10F430008091C00087FFEFCF1EB897C08FEF80BBD1
:10F440000DC081B3809581BB80E090E0E0EDF7E0F6
:10F450003197F1F70196883C9105C1F78091C00082
:10F4600087FFEFCF11BA81C08FEF83BB0DC084B38C
:10F47000809584BB80E090E0E0EDF7E03197F1F714
:10F480000196883C9105C1F78091C00087FFEFCFBE
:10F4900014BA6BC08FEF809301010FC080910201FD
:10F4A00080958093020180E090E0E0EDF7E03197F5
:10F4B000F1F70196883C9105C1F78091C00087FF64
:10F4C000EDCF1092020151C08FEF809304010FC065
:10F4D0008091050180958093050180E090E0E0ED4A
:10F4E000F7E03197F1F70196883C9105C1F78091DB
:10F4F000C00087FFEDCF1092050137C08FEF8093DA
:10F5000007010FC08091080180958093080180E079
:10F5100090E0E0EDF7E03197F1F70196883C910536
:10F52000C1F78091C00087FFEDCF109208011DC088
:10F530008FEF80930A010FC080910B01809580931B
:10F540000B0180E090E0E0EDF7E03197F1F70196F4
:10F55000883C9105C1F78091C00087FFEDCF1092E4
:10F560000B0103C085E292EEEEC98091C00087FFD7
:10F57000FCCF8091C600EAC988E392EEE4C98CE131
:10F5800091EEE1C988249924933011F1943028F444
:10F59000913089F09230B8F408C0953061F195301F
:10F5A000F0F0963009F048C043C02B3109F042C951
:10F5B00091E06BE13FC96227C15DDE4F2883CF52E6
:10F5C000D14092E037C9B22FA0E0622793E032C960
:10F5D000822F90E0A82BB92B622794E02BC92E3004
:10F5E00009F039C3622795E0C05DDE4F19821882A9
:10F5F000C053D1401FC9E1E0F0E0EC0FFD1FC05D3A
:10F60000DE4F08811981C053D140E00FF11F2083E4
:10F610000F5F1F4FC05DDE4F19830883C053D14079
:10F6200062270A171B0709F005C9D80196E002C92D
:10F63000261709F010C303C0973009F0FBC87724E0
:10F640009981933109F412C19431C8F4963009F4C8
:10F65000D8C0973050F4923009F406C1933009F4C1
:10F660006DC0913009F059C253C0913109F477C08F
:10F67000923108F0BBC0903109F04FC2F5C098310B
:10F6800009F487C0993150F4953109F4EFC09531F0
:10F6900008F4C6C1963109F040C2C2C19A3109F4DA
:10F6A0006CC09A3108F491C09B3109F45BC09D3164
:10F6B00009F033C29D81903359F48F81882311F46E
:10F6C0009EE11CC0813011F091E018C098E916C08D
:10F6D000892F807591F0903539F4E0E0F0E089E011
:10F6E0008093570094910AC0983539F4E3E0F0E034
:10F6F00089E080935700949101C090E01A821B82A8
:10F700008D818C831D829E831F8227E030E009C299
:10F710001A8288E08B8381E48C8386E58D8382E581
:10F720008E8389E48F8383E5888780E589878FE5E9
:10F730008A8782E38B872BE030E0F3C18A818139AD
:10F7400041F0823941F0803911F48FE005C080E04A
:10F7500003C082E001C08AE01A828B8344C0772410
:10F76000739482C08D81882311F48EE12CC0813086
:10F7700011F081E028C088E926C01A82E1E0F0E0BB
:10F7800089E08093570084918B831C8224E030E0D1
:10F79000C8C18B81803589F48C81883039F4E2E0EE
:10F7A000F0E089E08093570084910DC0E0E0F0E044
:10F7B00089E080935700849106C0E3E0F0E089E09F
:10F7C0008093570084911A82DFCF8D81836C99E0FA
:10F7D000E1E0F0E0082E90935700E89507B600FCB2
:10F7E000FDCF1A821B8223E030E09BC180EC8A832C
:10F7F000CE5CDE4F188219821A821B82C253D1401E
:10F800008EC18A8190E0A0E0B0E0582F44273327D2
:10F8100022278B8190E0A0E0B0E0DC0199278827C7
:10F82000282B392B4A2B5B2B8D8190E0A0E0B0E098
:10F83000282B392B4A2B5B2B8C8190E0A0E0B0E089
:10F84000BA2FA92F982F8827282B392B4A2B5B2BCF
:10F85000220F331F441F551FC05EDE4F288339839C
:10F860004A835B83C052D1401A8259C13A81C95C34
:10F87000DE4F3883C753D140CA5CDE4F1882C6536F
:10F88000D1408B81C82EDD24CA5CDE4F488159816E
:10F89000C653D140C42AD52A933109F082C0CE5C28
:10F8A000DE4F88819981AA81BB81C253D1408050AB
:10F8B000904CA340B04030F583E0CE5CDE4FE88052
:10F8C000F9800A811B81C253D140F70100935B008C
:10F8D00080935700E89507B600FCFDCFCE5CDE4F65
:10F8E000088119812A813B81C253D14000501F4FAA
:10F8F0002F4F3F4FCE5CDE4F088319832A833B8313
:10F90000C253D140C05EDE4F488159816A817B81FC
:10F91000C052D140DE011B9631E08C9111962C91A2
:10F9200011971296C75CDE4F2883C953D140C85C3B
:10F93000DE4F1882C853D14090E0C85CDE4FE881AA
:10F94000F981C853D1408E2B9F2B0C01FA01609393
:10F950005B0030935700E89511244E5F5F4F6F4F67
:10F960007F4F0EEFE02E0FEFF02ECE0CDF1CC114F8
:10F97000D10499F685E0C05EDE4F088119812A81A5
:10F980003B81C052D140F80120935B008093570027
:10F99000E89507B600FCFDCF81E180935700E8951C
:10F9A00035C0C05EDE4F88819981AA81BB81C0527B
:10F9B000D140B695A795979587957C018601ABE0D8
:10F9C000AA2EB12CAC0EBD1E0BC0D5016D915D01F0
:10F9D000C7010F947FFE0894E11CF11C01501040F8
:10F9E0000115110591F7A60160E070E0440F551F65
:10F9F000661F771FC05EDE4FE880F9800A811B8199
:10FA0000C052D1404E0D5F1D601F711F1A82C05E33
:10FA1000DE4F488359836A837B83C052D1407FC0C5
:10FA2000FA80C55CDE4FF882CB53D140C65CDE4F16
:10FA30001882CA53D1408B81C82EDD24C65CDE4FAC
:10FA400008811981CA53D140C02AD12A1A828981DA
:10FA5000BE016D5F7F4F843121F59601C05EDE4FA0
:10FA6000E880F9800A811B81C052D1400BBFF701A9
:10FA700087919691DB018C9311969C936E5F7F4FDB
:10FA8000D801C7010296A11DB11DC05EDE4F88835B
:10FA90009983AA83BB83C052D14022503040F1F6F3
:10FAA00036C0C05EDE4F288139814A815B81C052F9
:10FAB000D1400894C108D108760100E010E0089414
:10FAC000C11CD11C0894E11CF11C011D111DE20E8A
:10FAD000F31E041F151F21BDBB27A52F942F832FB5
:10FAE00082BD2F5F3F4F4F4F5F4FF89A80B5DB01CC
:10FAF0008D93BD012E153F054007510761F7C05E8C
:10FB0000DE4F288339834A835B83C052D1409601FC
:10FB10002D5F3F4FFB01108204C080EC8A8322E0FE
:10FB200030E08BE18093C6008091C00086FFFCCF5F
:10FB30008091C00080648093C000C15DDE4FF88179
:10FB4000CF52D140F093C6008091C00086FFFCCF19
:10FB50008091C00080648093C000432F3093C60022
:10FB60008091C00086FFFCCF8091C00080648093AC
:10FB7000C000922F2093C6008091C00086FFFCCF6A
:10FB80008091C00080648093C0008EE08093C600A6
:10FB90008091C00086FFFCCF8091C000806480937C
:10FBA000C00065E1C15DDE4FE880CF52D1406E25D7
:10FBB00069276427FE01319610C090819093C6009A
:10FBC0008091C00086FFFCCF31968091C000806498
:10FBD0008093C0006927215030402115310569F715
:10FBE0006093C6008091C00086FFFCCF8091C0006A
:10FBF00080648093C00085B1805885B9772081F4F6
:10FC0000C15DDE4F0881CF52D1400F5FC15DDE4F35
:10FC10000883CF52D14090E0A0E0B0E00D941AF4F8
:10FC200027982F9880E090E020ED37E0F901319798
:10FC3000F1F7019684369105C9F700008091C00064
:10FC40008D7F8093C00081E180935700E895EE2777
:10FC5000FF270994FFCF90E00D941AF497FB092E2B
:10FC600007260AD077FD04D02ED006D000201AF443
:10FC7000709561957F4F0895F6F7909581959F4F08
:10FC80000895A1E21A2EAA1BBB1BFD010DC0AA1FDD
:10FC9000BB1FEE1FFF1FA217B307E407F50720F0F5
:10FCA000A21BB30BE40BF50B661F771F881F991F70
:10FCB0001A9469F760957095809590959B01AC01B9
:10FCC000BD01CF010895AA1BBB1B51E107C0AA1FAC
:10FCD000BB1FA617B70710F0A61BB70B881F991FED
:10FCE0005A95A9F780959095BC01CD010895F99991
:10FCF000FECF92BD81BDF89A992780B50895262F31
:10FD0000F999FECF1FBA92BD81BD20BD0FB6F89400
:0EFD1000FA9AF99A0FBE01960895F894FFCF63
:040000033000E000E9
:00000001FF
