:100000000C9463000C948B000C948B000C948B006C
:100010000C948B000C948B000C948B000C948B0034
:100020000C948B000C948B000C948B000C948B0024
:100030000C948B000C948B000C948B000C948B0014
:100040000C946D030C948B000C944E060C9480065B
:100050000C948B000C948B000C948B000C948B00F4
:100060000C948B000C948B0000000008000201002F
:100070000003040700000000000000000102040863
:100080001020408001020408102001020408102002
:10009000040404040404040402020202020203032E
:1000A00003030303000000002300260029000000D2
:1000B0000000250028002B0000000000240027007D
:1000C0002A00EE00B00611241FBECFEFD8E0DEBF3D
:1000D000CDBF11E0A0E0B1E0ECE4FFE002C005908C
:1000E0000D92A438B107D9F722E0A4E8B1E001C02D
:1000F0001D92A83EB207E1F710E0C6ECD0E004C0C4
:100100002297FE010E949707C23CD107C9F70E94BF
:1001100063070C94A4070C94000067E071E08BE483
:1001200092E00E943E0764EF71E080E090E00E9460
:10013000DA0361E171E08BE492E00E943E0764EF34
:1001400071E080E090E00E94DA0367E271E08BE406
:1001500092E00E943E0764EF71E080E090E00E9430
:10016000DA036AE18BE492E00E94500764EF71E0E9
:1001700080E090E00C94DA0360E08CE00E9471046F
:1001800026E040E855E260E070E08BE492E00E94F7
:10019000EC0520E042E060E18AE292E00E94A902E0
:1001A00060EE7EE280E090E00E94DA036AE271E0B5
:1001B0008BE492E00E943E0767E071E08BE492E0FE
:1001C0000E943E076FE271E08BE492E00E943E07DE
:1001D00068EE73E080E090E00C94DA03CF92EF9247
:1001E0000F9382E0C82E93E0E92E04E025E046E07C
:1001F00067E08AE292E00E9447030F91EF90CF9070
:100200000895CF93DF938CE00E94E004019739F4C6
:100210008CE00E94E0040197D9F30E948D008BE4EA
:1002200092E00E94090518161906ACF4C091280244
:10023000D09129028BE492E00E942205C054DE4F47
:100240008883809128029091290201969093290237
:1002500080932802E4CFE0ECF1E001900020E9F780
:100260003197E05CF140F0932502E093240260ECCA
:1002700071E08BE492E00E943E0782E090E09C01F6
:10028000225031098630910554F4FC01E655FE4FA9
:10029000DC01A054BE4F2C9120830196F0CF9093A7
:1002A00029028093280230932702209326026CEAC9
:1002B00071E08BE492E00E943E0760E071E08CEA1E
:1002C00091E00E949B079093060180930501892B82
:1002D00009F086C081E090E09093060180930501CB
:1002E00020912402309125022150310983E390E0CE
:1002F000AC01435351098217930754F4FC01EF5AA0
:10030000FE4FDC01A054BE4F4C9140830196F0CFCC
:10031000909329028093280250932702409326024B
:1003200064E871E08BE492E00E943E0780918401D2
:100330008332F1F540E060E08AE292E00E948F02B1
:1003400061E471E08AE292E00E94310741E060E0FE
:100350008AE292E00E948F022091240230912502CD
:100360002653310981E090E0AC01415051098217D8
:10037000930754F4FC01E956FE4FDC01AC57BE4F25
:100380004C9140830196F0CF9093290280932802EC
:10039000509327024093260268E971E08AE292E0D6
:1003A0000E94310760ED77E080E090E00E94DA0380
:1003B000809184018B32A1F440E060E08AE292E017
:1003C0000E948F0261E571E08AE292E00E943107AB
:1003D00060ED77E080E090E0DF91CF910C94DA035C
:1003E000DF91CF910895CF93DF93EC0160E08E8190
:1003F0000E94AA0481E090E00E94020461E08E81E4
:100400000E94AA0481E090E00E94020460E08E81D4
:100410000E94AA0484E690E0DF91CF910C9402043C
:10042000EF92FF920F931F93CF93DF938C01C0E065
:10043000D0E0E62EF12CB7010C2E02C07595679521
:100440000A94E2F76170F801EC0FFD1F87810E94AA
:10045000AA042196C430D10571F7C801DF91CF916C
:100460001F910F91FF90EF900C94F301EF92FF9288
:100470000F931F93CF93DF938C01C0E0D0E0E62E63
:10048000F12CB7010C2E02C0759567950A94E2F71E
:100490006170F801EC0FFD1F87810E94AA0421966C
:1004A000C830D10571F7C801DF91CF911F910F912D
:1004B000FF90EF900C94F3011F93CF93DF93EC0127
:1004C000162F642F8C810E94AA048D818F3F19F012
:1004D00060E00E94AA048F85612F84FF06C0CE01D0
:1004E000DF91CF911F910C94360270E084E07595F6
:1004F00067958A95E1F7CE010E941002612FCE0127
:10050000DF91CF911F910C94100240E00C945C029B
:1005100061E00E94850280ED97E00C940204443073
:1005200008F043E0FC012389421710F04FEF420F1F
:10053000FC01E40FF11D2489260F2068622F0C9422
:100540008502FC016089262F2460208B6C600C944E
:1005500085020F931F93CF93DF93EC01423018F085
:100560008F8588608F874B8B1C8A80E48D8B6E8B88
:1005700070E0605C7F4F6F8B222329F0413019F4CB
:100580008F8584608F8761E08C810E9471048D81EA
:100590008F3F19F061E00E94710461E08E810E943A
:1005A000710400E010E08F8584FF03C088E090E0D4
:1005B00002C084E090E00817190754F4FE01E00F30
:1005C000F11F61E087810E9471040F5F1F4FEBCF25
:1005D00080E593EC0E94020460E08C810E94AA04F2
:1005E00060E08E810E94AA048D818F3F19F060E047
:1005F0000E94AA046F8564FD1DC063E0CE010E94C5
:10060000100284E991E10E94020463E0CE010E949D
:10061000100284E991E10E94020463E0CE010E948D
:10062000100286E990E00E94020462E0CE010E947E
:10063000100216C06062CE010E94850284E991E139
:100640000E9402046F856062CE010E94850286E9E5
:1006500090E00E9402046F856062CE010E948502D4
:100660006F856062CE010E94850284E0888BCE0196
:100670000E94A102CE010E94880282E0898B66E07E
:10068000CE01DF91CF911F910F910C948502CF92F3
:10069000EF920F93FC01138212828EE591E0918319
:1006A000808364838FEF8583468327830087E18679
:1006B000C2861386148615861686178620E041E0CA
:1006C00060E1CF010F91EF90CF900C94A90241E02F
:1006D0000E945C0281E090E008951F920F920FB695
:1006E0000F9211242F933F938F939F93AF93BF93B8
:1006F0008091430290914402A0914502B09146023C
:100700003091420223E0230F2D3720F40196A11DE2
:10071000B11D05C026E8230F0296A11DB11D20932F
:1007200042028093430290934402A0934502B09307
:1007300046028091470290914802A0914902B091EF
:100740004A020196A11DB11D809347029093480271
:10075000A0934902B0934A02BF91AF919F918F91AC
:100760003F912F910F900FBE0F901F9018953FB79C
:10077000F8948091470290914802A0914902B0916B
:100780004A0226B5A89B05C02F3F19F00196A11D6E
:10079000B11D3FBF6627782F892F9A2F620F711DD9
:1007A000811D911D42E0660F771F881F991F4A9592
:1007B000D1F70895CF92DF92EF92FF92CF93DF931C
:1007C0006B017C010E94B703EB01C114D104E10469
:1007D000F10489F00E9472070E94B7036C1B7D0B25
:1007E000683E734090F381E0C81AD108E108F1082F
:1007F000C851DC4FEACFDF91CF91FF90EF90DF90AF
:10080000CF9008958230910538F0880F991F880F96
:10081000991F05970197F1F70895789484B5826040
:1008200084BD84B5816084BD85B5826085BD85B594
:10083000816085BDEEE6F0E0808181608083E1E843
:10084000F0E010828081826080838081816080837B
:10085000E0E8F0E0808181608083E1EBF0E080817E
:1008600084608083E0EBF0E0808181608083EAE750
:10087000F0E08081846080838081826080838081D9
:10088000816080838081806880831092C100089598
:10089000833081F028F4813099F08230A1F00895FE
:1008A0008730A9F08830B9F08430D1F4809180008D
:1008B0008F7D03C0809180008F77809380000895A2
:1008C00084B58F7702C084B58F7D84BD08958091F3
:1008D000B0008F7703C08091B0008F7D8093B0000F
:1008E0000895CF93DF9390E0FC01E458FF4F2491EB
:1008F000FC01E057FF4F8491882349F190E0880F75
:10090000991FFC01E854FF4FA591B49182559F4F68
:10091000FC01C591D4919FB7611108C0F8948C91E6
:10092000209582238C93888182230AC0623051F4FF
:10093000F8948C91322F309583238C938881822B6D
:10094000888304C0F8948C91822B8C939FBFDF9195
:10095000CF9108950F931F93CF93DF931F92CDB73D
:10096000DEB7282F30E0F901E859FF4F8491F901F3
:10097000E458FF4F1491F901E057FF4F0491002311
:10098000C9F0882321F069830E9448046981E02F1F
:10099000F0E0EE0FFF1FE255FF4FA591B4919FB716
:1009A000F8948C91611103C01095812301C0812BB3
:1009B0008C939FBF0F90DF91CF911F910F9108955E
:1009C000CF93DF93282F30E0F901E859FF4F84914E
:1009D000F901E458FF4FD491F901E057FF4FC4915A
:1009E000CC2391F081110E944804EC2FF0E0EE0F2F
:1009F000FF1FEC55FF4FA591B4912C912D2381E061
:100A000090E021F480E002C080E090E0DF91CF919F
:100A10000895FC01818D228D90E0805C9F4F821BA8
:100A200091098F7399270895FC01918D828D9817F4
:100A300031F0828DE80FF11D858D90E008958FEFE4
:100A40009FEF0895FC01918D828D981761F0828D42
:100A5000DF01A80FB11D5D968C91928D9F5F9F73F2
:100A6000928F90E008958FEF9FEF089586EA96E0C9
:100A7000892B49F080E090E0892B29F00E94A6069E
:100A800081110C9400000895FC01848DDF01A80FF2
:100A9000B11DA35ABF4F2C91848D90E001968F73A6
:100AA0009927848FA689B7892C93A089B1898C91C5
:100AB00080648C93938D848D981306C00288F3898B
:100AC000E02D80818F7D80830895CF93DF93EC01AB
:100AD000888D8823C9F0EA89FB89808185FD05C05E
:100AE000A889B9898C9186FD0FC00FB607FCF5CF98
:100AF000808185FFF2CFA889B9898C9185FFEDCFE0
:100B0000CE010E944405E7CFDF91CF910895CF92A7
:100B1000DF92FF920F931F93CF93DF931F92CDB776
:100B2000DEB76C0181E0D60158968C9358975B969E
:100B30009C915B975C968C915C97981307C050963C
:100B4000ED91FC915197808185FD2EC0F601038DBA
:100B500010E00F5F1F4F0F731127F02EF601848DE9
:100B6000F81211C00FB607FCF9CFD6015096ED91DF
:100B7000FC915197808185FFF1CFC60169830E9466
:100B800044056981EBCF838DE80FF11DE35AFF4FD8
:100B90006083D6015B960C935B975296ED91FC9126
:100BA0005397808180620CC0D6015696ED91FC91DE
:100BB000579760835096ED91FC91519780818064A6
:100BC000808381E090E00F90DF91CF911F910F9192
:100BD000FF90DF90CF900895BF92CF92DF92EF9277
:100BE000FF92CF93DF93EC016A017B01B22EE8897B
:100BF000F98982E08083411581EE5807610571050E
:100C0000A1F060E079E08DE390E0A70196010E94F9
:100C10007307215031094109510956954795379578
:100C20002795211580E1380798F0E889F989108225
:100C300060E874E88EE190E0A70196010E947307D6
:100C40002150310941095109569547953795279506
:100C5000EC85FD853083EE85FF852083188EEC8939
:100C6000FD89B082EA89FB89808180618083EA897D
:100C7000FB89808188608083EA89FB898081806824
:100C80008083EA89FB8980818F7D8083DF91CF918A
:100C9000FF90EF90DF90CF90BF9008951F920F923A
:100CA0000FB60F9211242F938F939F93EF93FF937F
:100CB000E0915B02F0915C028081E0916102F09131
:100CC000620282FD12C09081809164028F5F8F73F7
:100CD00020916502821751F0E0916402F0E0E55B3B
:100CE000FD4F958F8093640201C08081FF91EF9149
:100CF0009F918F912F910F900FBE0F901F9018957D
:100D00001F920F920FB60F9211242F933F934F9380
:100D10005F936F937F938F939F93AF93BF93EF9363
:100D2000FF938BE492E00E944405FF91EF91BF9105
:100D3000AF919F918F917F916F915F914F913F9173
:100D40002F910F900FBE0F901F9018958BE492E09B
:100D50000E94090521E0892B09F420E0822F0895E3
:100D600010924E0210924D0288EE93E0A0E0B0E0A7
:100D700080934F0290935002A0935102B09352027D
:100D800086E691E090934C0280934B0285EC90E0D4
:100D9000909358028093570284EC90E090935A020B
:100DA0008093590280EC90E090935C0280935B0208
:100DB00081EC90E090935E0280935D0282EC90E083
:100DC0009093600280935F0286EC90E090936202C1
:100DD0008093610210926402109265021092660282
:100DE000109267020895CF92DF92EF92FF920F93D5
:100DF0001F93CF93DF937C016A01EB0100E010E0C9
:100E00000C151D0571F06991D701ED91FC910190D0
:100E1000F081E02DC7010995892B19F00F5F1F4F55
:100E2000EFCFC801DF91CF911F910F91FF90EF900D
:100E3000DF90CF9008956115710581F0DB010D9071
:100E40000020E9F7AD0141505109461B570BDC0169
:100E5000ED91FC910280F381E02D099480E090E017
:100E600008950C941B07DC01ED91FC910190F08139
:100E7000E02D099462E771E00C941B070F931F9318
:100E8000CF93DF93EC010E941B078C01CE010E94DF
:100E90003A07800F911FDF91CF911F910F91089515
:100EA0000F931F93CF93DF93EC010E9433078C01C4
:100EB000CE010E943A07800F911FDF91CF911F91C1
:100EC0000F91089508950E940D040E9462070E94E8
:100ED000BC00C6E3D5E00E9401012097E1F30E9427
:100EE0003605F9CF0895A1E21A2EAA1BBB1BFD01FE
:100EF0000DC0AA1FBB1FEE1FFF1FA217B307E407F9
:100F0000F50720F0A21BB30BE40BF50B661F771F50
:100F1000881F991F1A9469F7609570958095909530
:100F20009B01AC01BD01CF010895EE0FFF1F05909D
:100F3000F491E02D0994FB01DC018D910190801961
:0C0F40000110D9F3990B0895F894FFCF2D
:100F4C002B434D5400010041542B434D47463D313A
:100F5C000041542B434D47533D2238313239313205
:100F6C0037323937220D00243100415445300041CD
:100F7C00542B434E4D493D322C322C302C302C30DE
:100F8C0000426F61726420436F6E6669726D6564B6
:100F9C00004255532046554C4C000000000067039E
:100FAC00F306000000008705F30609052205140569
:100FBC0065050D0A006E616E00696E66006F7666DF
:040FCC00002E0000F3
:107E0000112484B714BE81FFF0D085E080938100F7
:107E100082E08093C00088E18093C10086E0809377
:107E2000C20080E18093C4008EE0C9D0259A86E02C
:107E300020E33CEF91E0309385002093840096BBD3
:107E4000B09BFECF1D9AA8958150A9F7CC24DD24C4
:107E500088248394B5E0AB2EA1E19A2EF3E0BF2EE7
:107E6000A2D0813461F49FD0082FAFD0023811F036
:107E7000013811F484E001C083E08DD089C08234E0
:107E800011F484E103C0853419F485E0A6D080C0E4
:107E9000853579F488D0E82EFF2485D0082F10E0AE
:107EA000102F00270E291F29000F111F8ED06801E7
:107EB0006FC0863521F484E090D080E0DECF843638
:107EC00009F040C070D06FD0082F6DD080E0C81688
:107ED00080E7D80618F4F601B7BEE895C0E0D1E017
:107EE00062D089930C17E1F7F0E0CF16F0E7DF06D8
:107EF00018F0F601B7BEE89568D007B600FCFDCFD4
:107F0000A601A0E0B1E02C9130E011968C91119780
:107F100090E0982F8827822B932B1296FA010C0160
:107F200087BEE89511244E5F5F4FF1E0A038BF0790
:107F300051F7F601A7BEE89507B600FCFDCF97BE46
:107F4000E89526C08437B1F42ED02DD0F82E2BD052
:107F50003CD0F601EF2C8F010F5F1F4F84911BD097
:107F6000EA94F801C1F70894C11CD11CFA94CF0C13
:107F7000D11C0EC0853739F428D08EE10CD085E9AC
:107F80000AD08FE07ACF813511F488E018D01DD067
:107F900080E101D065CF982F8091C00085FFFCCF94
:107FA0009093C60008958091C00087FFFCCF809118
:107FB000C00084FD01C0A8958091C6000895E0E648
:107FC000F0E098E1908380830895EDDF803219F02E
:107FD00088E0F5DFFFCF84E1DECF1F93182FE3DFCA
:107FE0001150E9F7F2DF1F91089580E0E8DFEE27F6
:047FF000FF270994CA
:027FFE00040479
:0400000300007E007B
:00000001FF
